{
  "contractName": "AuditLog",
  "abi": [
    {
      "inputs": [
        {
          "internalType": "address",
          "name": "_accessControlAddress",
          "type": "address"
        }
      ],
      "stateMutability": "nonpayable",
      "type": "constructor"
    },
    {
      "anonymous": false,
      "inputs": [
        {
          "indexed": true,
          "internalType": "address",
          "name": "user",
          "type": "address"
        },
        {
          "indexed": false,
          "internalType": "string",
          "name": "action",
          "type": "string"
        },
        {
          "indexed": false,
          "internalType": "uint256",
          "name": "timestamp",
          "type": "uint256"
        }
      ],
      "name": "LogAdded",
      "type": "event"
    },
    {
      "inputs": [],
      "name": "accessControl",
      "outputs": [
        {
          "internalType": "contract AccessControl",
          "name": "",
          "type": "address"
        }
      ],
      "stateMutability": "view",
      "type": "function",
      "constant": true
    },
    {
      "inputs": [
        {
          "internalType": "uint256",
          "name": "",
          "type": "uint256"
        }
      ],
      "name": "logs",
      "outputs": [
        {
          "internalType": "address",
          "name": "user",
          "type": "address"
        },
        {
          "internalType": "string",
          "name": "action",
          "type": "string"
        },
        {
          "internalType": "uint256",
          "name": "timestamp",
          "type": "uint256"
        }
      ],
      "stateMutability": "view",
      "type": "function",
      "constant": true
    },
    {
      "inputs": [
        {
          "internalType": "string",
          "name": "_action",
          "type": "string"
        }
      ],
      "name": "addLog",
      "outputs": [],
      "stateMutability": "nonpayable",
      "type": "function"
    },
    {
      "inputs": [],
      "name": "getLogsCount",
      "outputs": [
        {
          "internalType": "uint256",
          "name": "",
          "type": "uint256"
        }
      ],
      "stateMutability": "view",
      "type": "function",
      "constant": true
    },
    {
      "inputs": [
        {
          "internalType": "uint256",
          "name": "_index",
          "type": "uint256"
        }
      ],
      "name": "getLog",
      "outputs": [
        {
          "components": [
            {
              "internalType": "address",
              "name": "user",
              "type": "address"
            },
            {
              "internalType": "string",
              "name": "action",
              "type": "string"
            },
            {
              "internalType": "uint256",
              "name": "timestamp",
              "type": "uint256"
            }
          ],
          "internalType": "struct AuditLog.LogEntry",
          "name": "",
          "type": "tuple"
        }
      ],
      "stateMutability": "view",
      "type": "function",
      "constant": true
    }
  ],
  "bytecode": "0x608060405234801561001057600080fd5b50604051610dc7380380610dc78339818101604052810190610032919061008d565b806000806101000a81548173ffffffffffffffffffffffffffffffffffffffff021916908373ffffffffffffffffffffffffffffffffffffffff160217905550506100ff565b600081519050610087816100e8565b92915050565b60006020828403121561009f57600080fd5b60006100ad84828501610078565b91505092915050565b60006100c1826100c8565b9050919050565b600073ffffffffffffffffffffffffffffffffffffffff82169050919050565b6100f1816100b6565b81146100fc57600080fd5b50565b610cb98061010e6000396000f3fe608060405234801561001057600080fd5b50600436106100575760003560e01c806313007d551461005c5780633206b2c61461007a57806391dc956d146100aa578063cc9e300f146100c6578063e79899bd146100e4575b600080fd5b610064610116565b60405161007191906109b0565b60405180910390f35b610094600480360381019061008f91906107a1565b61013a565b6040516100a19190610a3b565b60405180910390f35b6100c460048036038101906100bf9190610760565b6102d5565b005b6100ce6104dc565b6040516100db9190610a5d565b60405180910390f35b6100fe60048036038101906100f991906107a1565b6104e9565b60405161010d93929190610972565b60405180910390f35b60008054906101000a900473ffffffffffffffffffffffffffffffffffffffff1681565b6101426105cb565b6001805490508210610189576040517f08c379a000000000000000000000000000000000000000000000000000000000815260040161018090610a1b565b60405180910390fd5b600182815481106101c3577f4e487b7100000000000000000000000000000000000000000000000000000000600052603260045260246000fd5b90600052602060002090600302016040518060600160405290816000820160009054906101000a900473ffffffffffffffffffffffffffffffffffffffff1673ffffffffffffffffffffffffffffffffffffffff1673ffffffffffffffffffffffffffffffffffffffff16815260200160018201805461024290610bb4565b80601f016020809104026020016040519081016040528092919081815260200182805461026e90610bb4565b80156102bb5780601f10610290576101008083540402835291602001916102bb565b820191906000526020600020905b81548152906001019060200180831161029e57829003601f168201915b505050505081526020016002820154815250509050919050565b60008054906101000a900473ffffffffffffffffffffffffffffffffffffffff1673ffffffffffffffffffffffffffffffffffffffff1663fe9fbb80336040518263ffffffff1660e01b815260040161032e9190610957565b60206040518083038186803b15801561034657600080fd5b505afa15801561035a573d6000803e3d6000fd5b505050506040513d601f19601f8201168201806040525081019061037e9190610737565b6103bd576040517f08c379a00000000000000000000000000000000000000000000000000000000081526004016103b4906109fb565b60405180910390fd5b600160405180606001604052803373ffffffffffffffffffffffffffffffffffffffff16815260200183815260200142815250908060018154018082558091505060019003906000526020600020906003020160009091909190915060008201518160000160006101000a81548173ffffffffffffffffffffffffffffffffffffffff021916908373ffffffffffffffffffffffffffffffffffffffff160217905550602082015181600101908051906020019061047c929190610602565b506040820151816002015550503373ffffffffffffffffffffffffffffffffffffffff167f1ca886f083d7104fc6ce65910cf0919b5c6f8d5681e3cb97d1f5901fe2b0dc6682426040516104d19291906109cb565b60405180910390a250565b6000600180549050905090565b600181815481106104f957600080fd5b90600052602060002090600302016000915090508060000160009054906101000a900473ffffffffffffffffffffffffffffffffffffffff169080600101805461054290610bb4565b80601f016020809104026020016040519081016040528092919081815260200182805461056e90610bb4565b80156105bb5780601f10610590576101008083540402835291602001916105bb565b820191906000526020600020905b81548152906001019060200180831161059e57829003601f168201915b5050505050908060020154905083565b6040518060600160405280600073ffffffffffffffffffffffffffffffffffffffff16815260200160608152602001600081525090565b82805461060e90610bb4565b90600052602060002090601f0160209004810192826106305760008555610677565b82601f1061064957805160ff1916838001178555610677565b82800160010185558215610677579182015b8281111561067657825182559160200191906001019061065b565b5b5090506106849190610688565b5090565b5b808211156106a1576000816000905550600101610689565b5090565b60006106b86106b384610aa9565b610a78565b9050828152602081018484840111156106d057600080fd5b6106db848285610b72565b509392505050565b6000815190506106f281610c55565b92915050565b600082601f83011261070957600080fd5b81356107198482602086016106a5565b91505092915050565b60008135905061073181610c6c565b92915050565b60006020828403121561074957600080fd5b6000610757848285016106e3565b91505092915050565b60006020828403121561077257600080fd5b600082013567ffffffffffffffff81111561078c57600080fd5b610798848285016106f8565b91505092915050565b6000602082840312156107b357600080fd5b60006107c184828501610722565b91505092915050565b6107d381610b06565b82525050565b6107e281610b06565b82525050565b6107f181610b4e565b82525050565b600061080282610ad9565b61080c8185610ae4565b935061081c818560208601610b81565b61082581610c44565b840191505092915050565b600061083b82610ad9565b6108458185610af5565b9350610855818560208601610b81565b61085e81610c44565b840191505092915050565b6000610876601383610af5565b91507f556e617574686f72697a656420616363657373000000000000000000000000006000830152602082019050919050565b60006108b6601183610af5565b91507f496e76616c6964206c6f6720696e6465780000000000000000000000000000006000830152602082019050919050565b600060608301600083015161090160008601826107ca565b506020830151848203602086015261091982826107f7565b915050604083015161092e6040860182610939565b508091505092915050565b61094281610b44565b82525050565b61095181610b44565b82525050565b600060208201905061096c60008301846107d9565b92915050565b600060608201905061098760008301866107d9565b81810360208301526109998185610830565b90506109a86040830184610948565b949350505050565b60006020820190506109c560008301846107e8565b92915050565b600060408201905081810360008301526109e58185610830565b90506109f46020830184610948565b9392505050565b60006020820190508181036000830152610a1481610869565b9050919050565b60006020820190508181036000830152610a34816108a9565b9050919050565b60006020820190508181036000830152610a5581846108e9565b905092915050565b6000602082019050610a726000830184610948565b92915050565b6000604051905081810181811067ffffffffffffffff82111715610a9f57610a9e610c15565b5b8060405250919050565b600067ffffffffffffffff821115610ac457610ac3610c15565b5b601f19601f8301169050602081019050919050565b600081519050919050565b600082825260208201905092915050565b600082825260208201905092915050565b6000610b1182610b24565b9050919050565b60008115159050919050565b600073ffffffffffffffffffffffffffffffffffffffff82169050919050565b6000819050919050565b6000610b5982610b60565b9050919050565b6000610b6b82610b24565b9050919050565b82818337600083830152505050565b60005b83811015610b9f578082015181840152602081019050610b84565b83811115610bae576000848401525b50505050565b60006002820490506001821680610bcc57607f821691505b60208210811415610be057610bdf610be6565b5b50919050565b7f4e487b7100000000000000000000000000000000000000000000000000000000600052602260045260246000fd5b7f4e487b7100000000000000000000000000000000000000000000000000000000600052604160045260246000fd5b6000601f19601f8301169050919050565b610c5e81610b18565b8114610c6957600080fd5b50565b610c7581610b44565b8114610c8057600080fd5b5056fea2646970667358221220c3c92d1a962f95feddeb0e4844d334de39fb755abfa11f831c1fe727ad825e5064736f6c63430008000033",
  "immutableReferences": {},
  "source": "// SPDX-License-Identifier: MIT\r\npragma solidity ^0.8.0;\r\n\r\nimport \"./AccessControl.sol\";\r\n\r\ncontract AuditLog {\r\n    AccessControl public accessControl;\r\n\r\n    struct LogEntry {\r\n        address user;\r\n        string action;\r\n        uint256 timestamp;\r\n    }\r\n\r\n    LogEntry[] public logs;\r\n\r\n    event LogAdded(address indexed user, string action, uint256 timestamp);\r\n\r\n    constructor(address _accessControlAddress) {\r\n        accessControl = AccessControl(_accessControlAddress);\r\n    }\r\n\r\n    modifier onlyAuthorized() {\r\n        require(accessControl.isAuthorized(msg.sender), \"Unauthorized access\");\r\n        _;\r\n    }\r\n\r\n    function addLog(string memory _action) public onlyAuthorized {\r\n        logs.push(\r\n            LogEntry({\r\n                user: msg.sender,\r\n                action: _action,\r\n                timestamp: block.timestamp\r\n            })\r\n        );\r\n\r\n        emit LogAdded(msg.sender, _action, block.timestamp);\r\n    }\r\n\r\n    function getLogsCount() public view returns (uint256) {\r\n        return logs.length;\r\n    }\r\n\r\n    function getLog(uint256 _index) public view returns (LogEntry memory) {\r\n        require(_index < logs.length, \"Invalid log index\");\r\n        return logs[_index];\r\n    }\r\n}\r\n",
  "sourcePath": "E:\\CN\\NCKH\\BLOCKCHAIN_CODE_MAIN\\CODE_MAIN_TOPIC\\health-records-blockchain\\contracts\\AuditLog.sol",
  "compiler": {
    "name": "solc",
    "version": "0.8.0+commit.c7dfd78e.Emscripten.clang"
  },
  "schemaVersion": "3.4.16",
  "updatedAt": "2024-08-24T15:05:51.857Z",
  "networkType": "ethereum",
  "devdoc": {
    "kind": "dev",
    "methods": {},
    "version": 1
  },
  "userdoc": {
    "kind": "user",
    "methods": {},
    "version": 1
  }
}