{
  "contractName": "DataSharing",
  "abi": [
    {
      "inputs": [
        {
          "internalType": "address",
          "name": "_accessControlAddress",
          "type": "address"
        }
      ],
      "stateMutability": "nonpayable",
      "type": "constructor"
    },
    {
      "anonymous": false,
      "inputs": [
        {
          "indexed": true,
          "internalType": "address",
          "name": "patient",
          "type": "address"
        },
        {
          "indexed": true,
          "internalType": "address",
          "name": "doctor",
          "type": "address"
        },
        {
          "indexed": false,
          "internalType": "uint256",
          "name": "expirationTime",
          "type": "uint256"
        }
      ],
      "name": "AccessGranted",
      "type": "event"
    },
    {
      "anonymous": false,
      "inputs": [
        {
          "indexed": true,
          "internalType": "address",
          "name": "patient",
          "type": "address"
        },
        {
          "indexed": true,
          "internalType": "address",
          "name": "doctor",
          "type": "address"
        }
      ],
      "name": "AccessRevoked",
      "type": "event"
    },
    {
      "inputs": [],
      "name": "accessControl",
      "outputs": [
        {
          "internalType": "contract AccessControl",
          "name": "",
          "type": "address"
        }
      ],
      "stateMutability": "view",
      "type": "function",
      "constant": true
    },
    {
      "inputs": [
        {
          "internalType": "bytes32",
          "name": "",
          "type": "bytes32"
        }
      ],
      "name": "sharedAccesses",
      "outputs": [
        {
          "internalType": "address",
          "name": "patient",
          "type": "address"
        },
        {
          "internalType": "address",
          "name": "doctor",
          "type": "address"
        },
        {
          "internalType": "uint256",
          "name": "expirationTime",
          "type": "uint256"
        }
      ],
      "stateMutability": "view",
      "type": "function",
      "constant": true
    },
    {
      "inputs": [
        {
          "internalType": "address",
          "name": "_doctor",
          "type": "address"
        },
        {
          "internalType": "uint256",
          "name": "_duration",
          "type": "uint256"
        }
      ],
      "name": "grantAccess",
      "outputs": [],
      "stateMutability": "nonpayable",
      "type": "function"
    },
    {
      "inputs": [
        {
          "internalType": "address",
          "name": "_doctor",
          "type": "address"
        }
      ],
      "name": "revokeAccess",
      "outputs": [],
      "stateMutability": "nonpayable",
      "type": "function"
    },
    {
      "inputs": [
        {
          "internalType": "address",
          "name": "_patient",
          "type": "address"
        },
        {
          "internalType": "address",
          "name": "_doctor",
          "type": "address"
        }
      ],
      "name": "checkAccess",
      "outputs": [
        {
          "internalType": "bool",
          "name": "",
          "type": "bool"
        }
      ],
      "stateMutability": "view",
      "type": "function",
      "constant": true
    }
  ],
  "bytecode": "0x608060405234801561001057600080fd5b50604051610d64380380610d648339818101604052810190610032919061008d565b806000806101000a81548173ffffffffffffffffffffffffffffffffffffffff021916908373ffffffffffffffffffffffffffffffffffffffff160217905550506100ff565b600081519050610087816100e8565b92915050565b60006020828403121561009f57600080fd5b60006100ad84828501610078565b91505092915050565b60006100c1826100c8565b9050919050565b600073ffffffffffffffffffffffffffffffffffffffff82169050919050565b6100f1816100b6565b81146100fc57600080fd5b50565b610c568061010e6000396000f3fe608060405234801561001057600080fd5b50600436106100575760003560e01c806313007d551461005c57806362e1f7451461007a578063801014e6146100aa57806385e68531146100dc5780639df89256146100f8575b600080fd5b610064610114565b6040516100719190610a31565b60405180910390f35b610094600480360381019061008f9190610815565b610138565b6040516100a19190610a16565b60405180910390f35b6100c460048036038101906100bf91906108b6565b6102c5565b6040516100d3939291906109df565b60405180910390f35b6100f660048036038101906100f191906107ec565b61032f565b005b610112600480360381019061010d9190610851565b61050e565b005b60008054906101000a900473ffffffffffffffffffffffffffffffffffffffff1681565b600080838360405160200161014e929190610998565b6040516020818303038152906040528051906020012090506000600160008381526020019081526020016000206040518060600160405290816000820160009054906101000a900473ffffffffffffffffffffffffffffffffffffffff1673ffffffffffffffffffffffffffffffffffffffff1673ffffffffffffffffffffffffffffffffffffffff1681526020016001820160009054906101000a900473ffffffffffffffffffffffffffffffffffffffff1673ffffffffffffffffffffffffffffffffffffffff1673ffffffffffffffffffffffffffffffffffffffff16815260200160028201548152505090508473ffffffffffffffffffffffffffffffffffffffff16816000015173ffffffffffffffffffffffffffffffffffffffff161480156102ac57508373ffffffffffffffffffffffffffffffffffffffff16816020015173ffffffffffffffffffffffffffffffffffffffff16145b80156102bb5750428160400151115b9250505092915050565b60016020528060005260406000206000915090508060000160009054906101000a900473ffffffffffffffffffffffffffffffffffffffff16908060010160009054906101000a900473ffffffffffffffffffffffffffffffffffffffff16908060020154905083565b60008054906101000a900473ffffffffffffffffffffffffffffffffffffffff1673ffffffffffffffffffffffffffffffffffffffff16630869cfbc336040518263ffffffff1660e01b815260040161038891906109c4565b60206040518083038186803b1580156103a057600080fd5b505afa1580156103b4573d6000803e3d6000fd5b505050506040513d601f19601f820116820180604052508101906103d8919061088d565b610417576040517f08c379a000000000000000000000000000000000000000000000000000000000815260040161040e90610a4c565b60405180910390fd5b6000338260405160200161042c929190610998565b60405160208183030381529060405280519060200120905060016000828152602001908152602001600020600080820160006101000a81549073ffffffffffffffffffffffffffffffffffffffff02191690556001820160006101000a81549073ffffffffffffffffffffffffffffffffffffffff0219169055600282016000905550508173ffffffffffffffffffffffffffffffffffffffff163373ffffffffffffffffffffffffffffffffffffffff167f825c8be24eb0df19500f63e86c29e7d0d951e73056b889b891d85e40938d9b6e60405160405180910390a35050565b60008054906101000a900473ffffffffffffffffffffffffffffffffffffffff1673ffffffffffffffffffffffffffffffffffffffff16630869cfbc336040518263ffffffff1660e01b815260040161056791906109c4565b60206040518083038186803b15801561057f57600080fd5b505afa158015610593573d6000803e3d6000fd5b505050506040513d601f19601f820116820180604052508101906105b7919061088d565b6105f6576040517f08c379a00000000000000000000000000000000000000000000000000000000081526004016105ed90610a4c565b60405180910390fd5b6000338360405160200161060b929190610998565b60405160208183030381529060405280519060200120905060405180606001604052803373ffffffffffffffffffffffffffffffffffffffff1681526020018473ffffffffffffffffffffffffffffffffffffffff16815260200183426106729190610a98565b8152506001600083815260200190815260200160002060008201518160000160006101000a81548173ffffffffffffffffffffffffffffffffffffffff021916908373ffffffffffffffffffffffffffffffffffffffff16021790555060208201518160010160006101000a81548173ffffffffffffffffffffffffffffffffffffffff021916908373ffffffffffffffffffffffffffffffffffffffff160217905550604082015181600201559050508273ffffffffffffffffffffffffffffffffffffffff163373ffffffffffffffffffffffffffffffffffffffff167f65d0cc1e52d49938ca4ad9f423c79c1b84d914b9a683fbc5d3f93ac3cc5635f5844261077e9190610a98565b60405161078b9190610a6c565b60405180910390a3505050565b6000813590506107a781610bc4565b92915050565b6000815190506107bc81610bdb565b92915050565b6000813590506107d181610bf2565b92915050565b6000813590506107e681610c09565b92915050565b6000602082840312156107fe57600080fd5b600061080c84828501610798565b91505092915050565b6000806040838503121561082857600080fd5b600061083685828601610798565b925050602061084785828601610798565b9150509250929050565b6000806040838503121561086457600080fd5b600061087285828601610798565b9250506020610883858286016107d7565b9150509250929050565b60006020828403121561089f57600080fd5b60006108ad848285016107ad565b91505092915050565b6000602082840312156108c857600080fd5b60006108d6848285016107c2565b91505092915050565b6108e881610aee565b82525050565b6108ff6108fa82610aee565b610b64565b82525050565b61090e81610b00565b82525050565b61091d81610b40565b82525050565b6000610930602583610a87565b91507f4f6e6c792070617469656e74732063616e20706572666f726d2074686973206160008301527f6374696f6e0000000000000000000000000000000000000000000000000000006020830152604082019050919050565b61099281610b36565b82525050565b60006109a482856108ee565b6014820191506109b482846108ee565b6014820191508190509392505050565b60006020820190506109d960008301846108df565b92915050565b60006060820190506109f460008301866108df565b610a0160208301856108df565b610a0e6040830184610989565b949350505050565b6000602082019050610a2b6000830184610905565b92915050565b6000602082019050610a466000830184610914565b92915050565b60006020820190508181036000830152610a6581610923565b9050919050565b6000602082019050610a816000830184610989565b92915050565b600082825260208201905092915050565b6000610aa382610b36565b9150610aae83610b36565b9250827fffffffffffffffffffffffffffffffffffffffffffffffffffffffffffffffff03821115610ae357610ae2610b88565b5b828201905092915050565b6000610af982610b16565b9050919050565b60008115159050919050565b6000819050919050565b600073ffffffffffffffffffffffffffffffffffffffff82169050919050565b6000819050919050565b6000610b4b82610b52565b9050919050565b6000610b5d82610b16565b9050919050565b6000610b6f82610b76565b9050919050565b6000610b8182610bb7565b9050919050565b7f4e487b7100000000000000000000000000000000000000000000000000000000600052601160045260246000fd5b60008160601b9050919050565b610bcd81610aee565b8114610bd857600080fd5b50565b610be481610b00565b8114610bef57600080fd5b50565b610bfb81610b0c565b8114610c0657600080fd5b50565b610c1281610b36565b8114610c1d57600080fd5b5056fea26469706673582212202f2202f4e7a4a0069f7712896cf90eb48692e8d4d8f2184dfa596617be4ef2e364736f6c63430008000033",
  "immutableReferences": {},
  "source": "// SPDX-License-Identifier: MIT\r\npragma solidity ^0.8.0;\r\n\r\nimport \"./AccessControl.sol\";\r\n\r\ncontract DataSharing {\r\n    AccessControl public accessControl;\r\n\r\n    struct SharedAccess {\r\n        address patient;\r\n        address doctor;\r\n        uint256 expirationTime;\r\n    }\r\n\r\n    mapping(bytes32 => SharedAccess) public sharedAccesses;\r\n\r\n    event AccessGranted(\r\n        address indexed patient,\r\n        address indexed doctor,\r\n        uint256 expirationTime\r\n    );\r\n    event AccessRevoked(address indexed patient, address indexed doctor);\r\n\r\n    constructor(address _accessControlAddress) {\r\n        accessControl = AccessControl(_accessControlAddress);\r\n    }\r\n\r\n    modifier onlyPatient() {\r\n        require(\r\n            accessControl.patients(msg.sender),\r\n            \"Only patients can perform this action\"\r\n        );\r\n        _;\r\n    }\r\n\r\n    function grantAccess(\r\n        address _doctor,\r\n        uint256 _duration\r\n    ) public onlyPatient {\r\n        bytes32 accessId = keccak256(abi.encodePacked(msg.sender, _doctor));\r\n        sharedAccesses[accessId] = SharedAccess({\r\n            patient: msg.sender,\r\n            doctor: _doctor,\r\n            expirationTime: block.timestamp + _duration\r\n        });\r\n\r\n        emit AccessGranted(msg.sender, _doctor, block.timestamp + _duration);\r\n    }\r\n\r\n    function revokeAccess(address _doctor) public onlyPatient {\r\n        bytes32 accessId = keccak256(abi.encodePacked(msg.sender, _doctor));\r\n        delete sharedAccesses[accessId];\r\n\r\n        emit AccessRevoked(msg.sender, _doctor);\r\n    }\r\n\r\n    function checkAccess(\r\n        address _patient,\r\n        address _doctor\r\n    ) public view returns (bool) {\r\n        bytes32 accessId = keccak256(abi.encodePacked(_patient, _doctor));\r\n        SharedAccess memory access = sharedAccesses[accessId];\r\n\r\n        return (access.patient == _patient &&\r\n            access.doctor == _doctor &&\r\n            access.expirationTime > block.timestamp);\r\n    }\r\n}\r\n",
  "sourcePath": "E:\\CN\\NCKH\\BLOCKCHAIN_CODE_MAIN\\CODE_MAIN_TOPIC\\health-records-blockchain\\contracts\\DataSharing.sol",
  "compiler": {
    "name": "solc",
    "version": "0.8.0+commit.c7dfd78e.Emscripten.clang"
  },
  "schemaVersion": "3.4.16",
  "updatedAt": "2024-08-24T15:05:51.852Z",
  "networkType": "ethereum",
  "devdoc": {
    "kind": "dev",
    "methods": {},
    "version": 1
  },
  "userdoc": {
    "kind": "user",
    "methods": {},
    "version": 1
  }
}