{
  "contractName": "HealthRecords",
  "abi": [
    {
      "inputs": [
        {
          "internalType": "address",
          "name": "_accessControlAddress",
          "type": "address"
        }
      ],
      "stateMutability": "nonpayable",
      "type": "constructor"
    },
    {
      "anonymous": false,
      "inputs": [
        {
          "indexed": true,
          "internalType": "address",
          "name": "patient",
          "type": "address"
        },
        {
          "indexed": false,
          "internalType": "string",
          "name": "dataHash",
          "type": "string"
        },
        {
          "indexed": false,
          "internalType": "uint256",
          "name": "timestamp",
          "type": "uint256"
        }
      ],
      "name": "RecordAdded",
      "type": "event"
    },
    {
      "inputs": [],
      "name": "accessControl",
      "outputs": [
        {
          "internalType": "contract AccessControl",
          "name": "",
          "type": "address"
        }
      ],
      "stateMutability": "view",
      "type": "function",
      "constant": true
    },
    {
      "inputs": [
        {
          "internalType": "address",
          "name": "_patient",
          "type": "address"
        },
        {
          "internalType": "string",
          "name": "_dataHash",
          "type": "string"
        }
      ],
      "name": "addRecord",
      "outputs": [],
      "stateMutability": "nonpayable",
      "type": "function"
    },
    {
      "inputs": [
        {
          "internalType": "address",
          "name": "_patient",
          "type": "address"
        }
      ],
      "name": "getRecords",
      "outputs": [
        {
          "components": [
            {
              "internalType": "string",
              "name": "dataHash",
              "type": "string"
            },
            {
              "internalType": "uint256",
              "name": "timestamp",
              "type": "uint256"
            },
            {
              "internalType": "address",
              "name": "uploader",
              "type": "address"
            }
          ],
          "internalType": "struct HealthRecords.HealthRecord[]",
          "name": "",
          "type": "tuple[]"
        }
      ],
      "stateMutability": "view",
      "type": "function",
      "constant": true
    }
  ],
  "bytecode": "0x608060405234801561001057600080fd5b50604051610d78380380610d788339818101604052810190610032919061008d565b806000806101000a81548173ffffffffffffffffffffffffffffffffffffffff021916908373ffffffffffffffffffffffffffffffffffffffff160217905550506100ff565b600081519050610087816100e8565b92915050565b60006020828403121561009f57600080fd5b60006100ad84828501610078565b91505092915050565b60006100c1826100c8565b9050919050565b600073ffffffffffffffffffffffffffffffffffffffff82169050919050565b6100f1816100b6565b81146100fc57600080fd5b50565b610c6a8061010e6000396000f3fe608060405234801561001057600080fd5b50600436106100415760003560e01c806313007d551461004657806366858ec814610064578063a0076e8414610080575b600080fd5b61004e6100b0565b60405161005b9190610985565b60405180910390f35b61007e600480360381019061007991906106f5565b6100d4565b005b61009a600480360381019061009591906106cc565b61031f565b6040516100a79190610963565b60405180910390f35b60008054906101000a900473ffffffffffffffffffffffffffffffffffffffff1681565b60008054906101000a900473ffffffffffffffffffffffffffffffffffffffff1673ffffffffffffffffffffffffffffffffffffffff1663fe9fbb80336040518263ffffffff1660e01b815260040161012d9190610948565b60206040518083038186803b15801561014557600080fd5b505afa158015610159573d6000803e3d6000fd5b505050506040513d601f19601f8201168201806040525081019061017d9190610749565b6101bc576040517f08c379a00000000000000000000000000000000000000000000000000000000081526004016101b3906109d0565b60405180910390fd5b600060405180606001604052808381526020014281526020013373ffffffffffffffffffffffffffffffffffffffff168152509050600160008473ffffffffffffffffffffffffffffffffffffffff1673ffffffffffffffffffffffffffffffffffffffff1681526020019081526020016000208190806001815401808255809150506001900390600052602060002090600302016000909190919091506000820151816000019080519060200190610276929190610597565b506020820151816001015560408201518160020160006101000a81548173ffffffffffffffffffffffffffffffffffffffff021916908373ffffffffffffffffffffffffffffffffffffffff16021790555050508273ffffffffffffffffffffffffffffffffffffffff167f4b92a41aaac1d087148ec39a65a261cc6ac88ed7765dece5374bb3893fcfcf9e83426040516103129291906109a0565b60405180910390a2505050565b606060008054906101000a900473ffffffffffffffffffffffffffffffffffffffff1673ffffffffffffffffffffffffffffffffffffffff1663fe9fbb80336040518263ffffffff1660e01b815260040161037a9190610948565b60206040518083038186803b15801561039257600080fd5b505afa1580156103a6573d6000803e3d6000fd5b505050506040513d601f19601f820116820180604052508101906103ca9190610749565b610409576040517f08c379a0000000000000000000000000000000000000000000000000000000008152600401610400906109d0565b60405180910390fd5b600160008373ffffffffffffffffffffffffffffffffffffffff1673ffffffffffffffffffffffffffffffffffffffff168152602001908152602001600020805480602002602001604051908101604052809291908181526020016000905b8282101561058c578382906000526020600020906003020160405180606001604052908160008201805461049b90610b65565b80601f01602080910402602001604051908101604052809291908181526020018280546104c790610b65565b80156105145780601f106104e957610100808354040283529160200191610514565b820191906000526020600020905b8154815290600101906020018083116104f757829003601f168201915b50505050508152602001600182015481526020016002820160009054906101000a900473ffffffffffffffffffffffffffffffffffffffff1673ffffffffffffffffffffffffffffffffffffffff1673ffffffffffffffffffffffffffffffffffffffff168152505081526020019060010190610468565b505050509050919050565b8280546105a390610b65565b90600052602060002090601f0160209004810192826105c5576000855561060c565b82601f106105de57805160ff191683800117855561060c565b8280016001018555821561060c579182015b8281111561060b5782518255916020019190600101906105f0565b5b509050610619919061061d565b5090565b5b8082111561063657600081600090555060010161061e565b5090565b600061064d61064884610a21565b6109f0565b90508281526020810184848401111561066557600080fd5b610670848285610b23565b509392505050565b60008135905061068781610c06565b92915050565b60008151905061069c81610c1d565b92915050565b600082601f8301126106b357600080fd5b81356106c384826020860161063a565b91505092915050565b6000602082840312156106de57600080fd5b60006106ec84828501610678565b91505092915050565b6000806040838503121561070857600080fd5b600061071685828601610678565b925050602083013567ffffffffffffffff81111561073357600080fd5b61073f858286016106a2565b9150509250929050565b60006020828403121561075b57600080fd5b60006107698482850161068d565b91505092915050565b600061077e83836108da565b905092915050565b61078f81610ab7565b82525050565b61079e81610ab7565b82525050565b60006107af82610a61565b6107b98185610a84565b9350836020820285016107cb85610a51565b8060005b8581101561080757848403895281516107e88582610772565b94506107f383610a77565b925060208a019950506001810190506107cf565b50829750879550505050505092915050565b61082281610aff565b82525050565b600061083382610a6c565b61083d8185610a95565b935061084d818560208601610b32565b61085681610bf5565b840191505092915050565b600061086c82610a6c565b6108768185610aa6565b9350610886818560208601610b32565b61088f81610bf5565b840191505092915050565b60006108a7601383610aa6565b91507f556e617574686f72697a656420616363657373000000000000000000000000006000830152602082019050919050565b600060608301600083015184820360008601526108f78282610828565b915050602083015161090c602086018261092a565b50604083015161091f6040860182610786565b508091505092915050565b61093381610af5565b82525050565b61094281610af5565b82525050565b600060208201905061095d6000830184610795565b92915050565b6000602082019050818103600083015261097d81846107a4565b905092915050565b600060208201905061099a6000830184610819565b92915050565b600060408201905081810360008301526109ba8185610861565b90506109c96020830184610939565b9392505050565b600060208201905081810360008301526109e98161089a565b9050919050565b6000604051905081810181811067ffffffffffffffff82111715610a1757610a16610bc6565b5b8060405250919050565b600067ffffffffffffffff821115610a3c57610a3b610bc6565b5b601f19601f8301169050602081019050919050565b6000819050602082019050919050565b600081519050919050565b600081519050919050565b6000602082019050919050565b600082825260208201905092915050565b600082825260208201905092915050565b600082825260208201905092915050565b6000610ac282610ad5565b9050919050565b60008115159050919050565b600073ffffffffffffffffffffffffffffffffffffffff82169050919050565b6000819050919050565b6000610b0a82610b11565b9050919050565b6000610b1c82610ad5565b9050919050565b82818337600083830152505050565b60005b83811015610b50578082015181840152602081019050610b35565b83811115610b5f576000848401525b50505050565b60006002820490506001821680610b7d57607f821691505b60208210811415610b9157610b90610b97565b5b50919050565b7f4e487b7100000000000000000000000000000000000000000000000000000000600052602260045260246000fd5b7f4e487b7100000000000000000000000000000000000000000000000000000000600052604160045260246000fd5b6000601f19601f8301169050919050565b610c0f81610ab7565b8114610c1a57600080fd5b50565b610c2681610ac9565b8114610c3157600080fd5b5056fea26469706673582212205f1b83b851228793648c5ca6abdde66aaa4dc975a530eb529b2daebc718539e064736f6c63430008000033",
  "immutableReferences": {},
  "source": "// SPDX-License-Identifier: MIT\r\npragma solidity ^0.8.0;\r\n\r\nimport \"./AccessControl.sol\";\r\n\r\ncontract HealthRecords {\r\n    AccessControl public accessControl;\r\n\r\n    struct HealthRecord {\r\n        string dataHash;\r\n        uint256 timestamp;\r\n        address uploader;\r\n    }\r\n\r\n    mapping(address => HealthRecord[]) private patientRecords;\r\n\r\n    event RecordAdded(\r\n        address indexed patient,\r\n        string dataHash,\r\n        uint256 timestamp\r\n    );\r\n\r\n    constructor(address _accessControlAddress) {\r\n        accessControl = AccessControl(_accessControlAddress);\r\n    }\r\n\r\n    modifier onlyAuthorized() {\r\n        require(accessControl.isAuthorized(msg.sender), \"Unauthorized access\");\r\n        _;\r\n    }\r\n\r\n    function addRecord(\r\n        address _patient,\r\n        string memory _dataHash\r\n    ) public onlyAuthorized {\r\n        HealthRecord memory newRecord = HealthRecord({\r\n            dataHash: _dataHash,\r\n            timestamp: block.timestamp,\r\n            uploader: msg.sender\r\n        });\r\n\r\n        patientRecords[_patient].push(newRecord);\r\n        emit RecordAdded(_patient, _dataHash, block.timestamp);\r\n    }\r\n\r\n    function getRecords(\r\n        address _patient\r\n    ) public view onlyAuthorized returns (HealthRecord[] memory) {\r\n        return patientRecords[_patient];\r\n    }\r\n}\r\n",
  "sourcePath": "E:\\CN\\NCKH\\BLOCKCHAIN_CODE_MAIN\\CODE_MAIN_TOPIC\\health-records-blockchain\\contracts\\HealthRecords.sol",
  "compiler": {
    "name": "solc",
    "version": "0.8.0+commit.c7dfd78e.Emscripten.clang"
  },
  "schemaVersion": "3.4.16",
  "updatedAt": "2024-08-24T15:05:51.845Z",
  "networkType": "ethereum",
  "devdoc": {
    "kind": "dev",
    "methods": {},
    "version": 1
  },
  "userdoc": {
    "kind": "user",
    "methods": {},
    "version": 1
  }
}